:100000000C942A000C9434000C9434000C943400AA
:100010000C9434000C9434000C9434000C94340090
:100020000C9434000C9434000C9434000C94340080
:100030000C9434000C9434000C9434000C94340070
:100040000C9434000C9434000C9434000C94340060
:100050000C94340011241FBECFE5D4E0DEBFCDBF29
:100060000E9436000C9484000C9400001F938FEFC4
:100070008ABB1BBA29E130E011E0B2E0A3E074E0F2
:1000800065E056E047E01BBA80E197E2F90131975D
:10009000F1F70197D9F71BBB80E197E2F90131979E
:1000A000F1F70197D9F7BBBB80E197E2F9013197EE
:1000B000F1F70197D9F7ABBB80E197E2F9013197EE
:1000C000F1F70197D9F77BBB80E197E2F90131970E
:1000D000F1F70197D9F76BBB80E197E2F90131970E
:1000E000F1F70197D9F75BBB80E197E2F90131970E
:1000F000F1F70197D9F74BBB80E197E2F90131970E
:0C010000F1F70197D9F7BFCFF894FFCFBB
:00000001FF
